{
  "_format": "hh-sol-artifact-1",
  "contractName": "BuyMyRoom",
  "sourceName": "contracts/BuyMyRoom.sol",
  "abi": [
    {
      "inputs": [],
      "stateMutability": "nonpayable",
      "type": "constructor"
    },
    {
      "inputs": [
        {
          "internalType": "address",
          "name": "sender",
          "type": "address"
        },
        {
          "internalType": "uint256",
          "name": "tokenId",
          "type": "uint256"
        },
        {
          "internalType": "address",
          "name": "owner",
          "type": "address"
        }
      ],
      "name": "ERC721IncorrectOwner",
      "type": "error"
    },
    {
      "inputs": [
        {
          "internalType": "address",
          "name": "operator",
          "type": "address"
        },
        {
          "internalType": "uint256",
          "name": "tokenId",
          "type": "uint256"
        }
      ],
      "name": "ERC721InsufficientApproval",
      "type": "error"
    },
    {
      "inputs": [
        {
          "internalType": "address",
          "name": "approver",
          "type": "address"
        }
      ],
      "name": "ERC721InvalidApprover",
      "type": "error"
    },
    {
      "inputs": [
        {
          "internalType": "address",
          "name": "operator",
          "type": "address"
        }
      ],
      "name": "ERC721InvalidOperator",
      "type": "error"
    },
    {
      "inputs": [
        {
          "internalType": "address",
          "name": "owner",
          "type": "address"
        }
      ],
      "name": "ERC721InvalidOwner",
      "type": "error"
    },
    {
      "inputs": [
        {
          "internalType": "address",
          "name": "receiver",
          "type": "address"
        }
      ],
      "name": "ERC721InvalidReceiver",
      "type": "error"
    },
    {
      "inputs": [
        {
          "internalType": "address",
          "name": "sender",
          "type": "address"
        }
      ],
      "name": "ERC721InvalidSender",
      "type": "error"
    },
    {
      "inputs": [
        {
          "internalType": "uint256",
          "name": "tokenId",
          "type": "uint256"
        }
      ],
      "name": "ERC721NonexistentToken",
      "type": "error"
    },
    {
      "inputs": [
        {
          "internalType": "address",
          "name": "owner",
          "type": "address"
        }
      ],
      "name": "OwnableInvalidOwner",
      "type": "error"
    },
    {
      "inputs": [
        {
          "internalType": "address",
          "name": "account",
          "type": "address"
        }
      ],
      "name": "OwnableUnauthorizedAccount",
      "type": "error"
    },
    {
      "anonymous": false,
      "inputs": [
        {
          "indexed": true,
          "internalType": "address",
          "name": "owner",
          "type": "address"
        },
        {
          "indexed": true,
          "internalType": "address",
          "name": "approved",
          "type": "address"
        },
        {
          "indexed": true,
          "internalType": "uint256",
          "name": "tokenId",
          "type": "uint256"
        }
      ],
      "name": "Approval",
      "type": "event"
    },
    {
      "anonymous": false,
      "inputs": [
        {
          "indexed": true,
          "internalType": "address",
          "name": "owner",
          "type": "address"
        },
        {
          "indexed": true,
          "internalType": "address",
          "name": "operator",
          "type": "address"
        },
        {
          "indexed": false,
          "internalType": "bool",
          "name": "approved",
          "type": "bool"
        }
      ],
      "name": "ApprovalForAll",
      "type": "event"
    },
    {
      "anonymous": false,
      "inputs": [
        {
          "indexed": false,
          "internalType": "uint256",
          "name": "tokenId",
          "type": "uint256"
        },
        {
          "indexed": false,
          "internalType": "uint256",
          "name": "price",
          "type": "uint256"
        },
        {
          "indexed": false,
          "internalType": "address",
          "name": "owner",
          "type": "address"
        }
      ],
      "name": "HouseListed",
      "type": "event"
    },
    {
      "anonymous": false,
      "inputs": [
        {
          "indexed": false,
          "internalType": "uint256",
          "name": "tokenId",
          "type": "uint256"
        },
        {
          "indexed": false,
          "internalType": "uint256",
          "name": "price",
          "type": "uint256"
        },
        {
          "indexed": false,
          "internalType": "address",
          "name": "buyer",
          "type": "address"
        }
      ],
      "name": "HouseSold",
      "type": "event"
    },
    {
      "anonymous": false,
      "inputs": [
        {
          "indexed": true,
          "internalType": "address",
          "name": "previousOwner",
          "type": "address"
        },
        {
          "indexed": true,
          "internalType": "address",
          "name": "newOwner",
          "type": "address"
        }
      ],
      "name": "OwnershipTransferred",
      "type": "event"
    },
    {
      "anonymous": false,
      "inputs": [
        {
          "indexed": true,
          "internalType": "address",
          "name": "from",
          "type": "address"
        },
        {
          "indexed": true,
          "internalType": "address",
          "name": "to",
          "type": "address"
        },
        {
          "indexed": true,
          "internalType": "uint256",
          "name": "tokenId",
          "type": "uint256"
        }
      ],
      "name": "Transfer",
      "type": "event"
    },
    {
      "inputs": [
        {
          "internalType": "address",
          "name": "to",
          "type": "address"
        },
        {
          "internalType": "uint256",
          "name": "tokenId",
          "type": "uint256"
        }
      ],
      "name": "approve",
      "outputs": [],
      "stateMutability": "nonpayable",
      "type": "function"
    },
    {
      "inputs": [
        {
          "internalType": "address",
          "name": "owner",
          "type": "address"
        }
      ],
      "name": "balanceOf",
      "outputs": [
        {
          "internalType": "uint256",
          "name": "",
          "type": "uint256"
        }
      ],
      "stateMutability": "view",
      "type": "function"
    },
    {
      "inputs": [
        {
          "internalType": "uint256",
          "name": "tokenId",
          "type": "uint256"
        }
      ],
      "name": "buyHouse",
      "outputs": [],
      "stateMutability": "payable",
      "type": "function"
    },
    {
      "inputs": [
        {
          "internalType": "uint256",
          "name": "price",
          "type": "uint256"
        },
        {
          "internalType": "uint256",
          "name": "listedTimestamp",
          "type": "uint256"
        }
      ],
      "name": "calculateFee",
      "outputs": [
        {
          "internalType": "uint256",
          "name": "",
          "type": "uint256"
        }
      ],
      "stateMutability": "view",
      "type": "function"
    },
    {
      "inputs": [
        {
          "internalType": "uint256",
          "name": "tokenId",
          "type": "uint256"
        }
      ],
      "name": "getApproved",
      "outputs": [
        {
          "internalType": "address",
          "name": "",
          "type": "address"
        }
      ],
      "stateMutability": "view",
      "type": "function"
    },
    {
      "inputs": [
        {
          "internalType": "uint256",
          "name": "tokenId",
          "type": "uint256"
        }
      ],
      "name": "getHouseInfo",
      "outputs": [
        {
          "internalType": "address",
          "name": "",
          "type": "address"
        },
        {
          "internalType": "uint256",
          "name": "",
          "type": "uint256"
        },
        {
          "internalType": "uint256",
          "name": "",
          "type": "uint256"
        }
      ],
      "stateMutability": "view",
      "type": "function"
    },
    {
      "inputs": [],
      "name": "getNextTokenId",
      "outputs": [
        {
          "internalType": "uint256",
          "name": "",
          "type": "uint256"
        }
      ],
      "stateMutability": "view",
      "type": "function"
    },
    {
      "inputs": [
        {
          "internalType": "uint256",
          "name": "",
          "type": "uint256"
        }
      ],
      "name": "houses",
      "outputs": [
        {
          "internalType": "address",
          "name": "owner",
          "type": "address"
        },
        {
          "internalType": "uint256",
          "name": "price",
          "type": "uint256"
        },
        {
          "internalType": "uint256",
          "name": "listedTimestamp",
          "type": "uint256"
        }
      ],
      "stateMutability": "view",
      "type": "function"
    },
    {
      "inputs": [
        {
          "internalType": "address",
          "name": "owner",
          "type": "address"
        },
        {
          "internalType": "address",
          "name": "operator",
          "type": "address"
        }
      ],
      "name": "isApprovedForAll",
      "outputs": [
        {
          "internalType": "bool",
          "name": "",
          "type": "bool"
        }
      ],
      "stateMutability": "view",
      "type": "function"
    },
    {
      "inputs": [
        {
          "internalType": "uint256",
          "name": "tokenId",
          "type": "uint256"
        },
        {
          "internalType": "uint256",
          "name": "price",
          "type": "uint256"
        }
      ],
      "name": "listHouse",
      "outputs": [],
      "stateMutability": "nonpayable",
      "type": "function"
    },
    {
      "inputs": [
        {
          "internalType": "address",
          "name": "to",
          "type": "address"
        }
      ],
      "name": "mintHouse",
      "outputs": [],
      "stateMutability": "nonpayable",
      "type": "function"
    },
    {
      "inputs": [],
      "name": "name",
      "outputs": [
        {
          "internalType": "string",
          "name": "",
          "type": "string"
        }
      ],
      "stateMutability": "view",
      "type": "function"
    },
    {
      "inputs": [],
      "name": "nextTokenId",
      "outputs": [
        {
          "internalType": "uint256",
          "name": "",
          "type": "uint256"
        }
      ],
      "stateMutability": "view",
      "type": "function"
    },
    {
      "inputs": [],
      "name": "owner",
      "outputs": [
        {
          "internalType": "address",
          "name": "",
          "type": "address"
        }
      ],
      "stateMutability": "view",
      "type": "function"
    },
    {
      "inputs": [
        {
          "internalType": "uint256",
          "name": "tokenId",
          "type": "uint256"
        }
      ],
      "name": "ownerOf",
      "outputs": [
        {
          "internalType": "address",
          "name": "",
          "type": "address"
        }
      ],
      "stateMutability": "view",
      "type": "function"
    },
    {
      "inputs": [],
      "name": "renounceOwnership",
      "outputs": [],
      "stateMutability": "nonpayable",
      "type": "function"
    },
    {
      "inputs": [
        {
          "internalType": "address",
          "name": "from",
          "type": "address"
        },
        {
          "internalType": "address",
          "name": "to",
          "type": "address"
        },
        {
          "internalType": "uint256",
          "name": "tokenId",
          "type": "uint256"
        }
      ],
      "name": "safeTransferFrom",
      "outputs": [],
      "stateMutability": "nonpayable",
      "type": "function"
    },
    {
      "inputs": [
        {
          "internalType": "address",
          "name": "from",
          "type": "address"
        },
        {
          "internalType": "address",
          "name": "to",
          "type": "address"
        },
        {
          "internalType": "uint256",
          "name": "tokenId",
          "type": "uint256"
        },
        {
          "internalType": "bytes",
          "name": "data",
          "type": "bytes"
        }
      ],
      "name": "safeTransferFrom",
      "outputs": [],
      "stateMutability": "nonpayable",
      "type": "function"
    },
    {
      "inputs": [
        {
          "internalType": "address",
          "name": "operator",
          "type": "address"
        },
        {
          "internalType": "bool",
          "name": "approved",
          "type": "bool"
        }
      ],
      "name": "setApprovalForAll",
      "outputs": [],
      "stateMutability": "nonpayable",
      "type": "function"
    },
    {
      "inputs": [
        {
          "internalType": "bytes4",
          "name": "interfaceId",
          "type": "bytes4"
        }
      ],
      "name": "supportsInterface",
      "outputs": [
        {
          "internalType": "bool",
          "name": "",
          "type": "bool"
        }
      ],
      "stateMutability": "view",
      "type": "function"
    },
    {
      "inputs": [],
      "name": "symbol",
      "outputs": [
        {
          "internalType": "string",
          "name": "",
          "type": "string"
        }
      ],
      "stateMutability": "view",
      "type": "function"
    },
    {
      "inputs": [
        {
          "internalType": "uint256",
          "name": "tokenId",
          "type": "uint256"
        }
      ],
      "name": "tokenURI",
      "outputs": [
        {
          "internalType": "string",
          "name": "",
          "type": "string"
        }
      ],
      "stateMutability": "view",
      "type": "function"
    },
    {
      "inputs": [
        {
          "internalType": "address",
          "name": "from",
          "type": "address"
        },
        {
          "internalType": "address",
          "name": "to",
          "type": "address"
        },
        {
          "internalType": "uint256",
          "name": "tokenId",
          "type": "uint256"
        }
      ],
      "name": "transferFrom",
      "outputs": [],
      "stateMutability": "nonpayable",
      "type": "function"
    },
    {
      "inputs": [
        {
          "internalType": "address",
          "name": "newOwner",
          "type": "address"
        }
      ],
      "name": "transferOwnership",
      "outputs": [],
      "stateMutability": "nonpayable",
      "type": "function"
    }
  ],
  "bytecode": "0x60806040523480156200001157600080fd5b50336040518060400160405280600981526020017f4275794d79526f6f6d00000000000000000000000000000000000000000000008152506040518060400160405280600381526020017f424d52000000000000000000000000000000000000000000000000000000000081525081600090816200009091906200047a565b508060019081620000a291906200047a565b505050600073ffffffffffffffffffffffffffffffffffffffff168173ffffffffffffffffffffffffffffffffffffffff16036200011a5760006040517f1e4fbdf7000000000000000000000000000000000000000000000000000000008152600401620001119190620005a6565b60405180910390fd5b6200012b816200013a60201b60201c565b506001600881905550620005c3565b6000600660009054906101000a900473ffffffffffffffffffffffffffffffffffffffff16905081600660006101000a81548173ffffffffffffffffffffffffffffffffffffffff021916908373ffffffffffffffffffffffffffffffffffffffff1602179055508173ffffffffffffffffffffffffffffffffffffffff168173ffffffffffffffffffffffffffffffffffffffff167f8be0079c531659141344cd1fd0a4f28419497f9722a3daafe3b4186f6b6457e060405160405180910390a35050565b600081519050919050565b7f4e487b7100000000000000000000000000000000000000000000000000000000600052604160045260246000fd5b7f4e487b7100000000000000000000000000000000000000000000000000000000600052602260045260246000fd5b600060028204905060018216806200028257607f821691505b6020821081036200029857620002976200023a565b5b50919050565b60008190508160005260206000209050919050565b60006020601f8301049050919050565b600082821b905092915050565b600060088302620003027fffffffffffffffffffffffffffffffffffffffffffffffffffffffffffffffff82620002c3565b6200030e8683620002c3565b95508019841693508086168417925050509392505050565b6000819050919050565b6000819050919050565b60006200035b620003556200034f8462000326565b62000330565b62000326565b9050919050565b6000819050919050565b62000377836200033a565b6200038f620003868262000362565b848454620002d0565b825550505050565b600090565b620003a662000397565b620003b38184846200036c565b505050565b5b81811015620003db57620003cf6000826200039c565b600181019050620003b9565b5050565b601f8211156200042a57620003f4816200029e565b620003ff84620002b3565b810160208510156200040f578190505b620004276200041e85620002b3565b830182620003b8565b50505b505050565b600082821c905092915050565b60006200044f600019846008026200042f565b1980831691505092915050565b60006200046a83836200043c565b9150826002028217905092915050565b620004858262000200565b67ffffffffffffffff811115620004a157620004a06200020b565b5b620004ad825462000269565b620004ba828285620003df565b600060209050601f831160018114620004f25760008415620004dd578287015190505b620004e985826200045c565b86555062000559565b601f19841662000502866200029e565b60005b828110156200052c5784890151825560018201915060208501945060208101905062000505565b868310156200054c578489015162000548601f8916826200043c565b8355505b6001600288020188555050505b505050505050565b600073ffffffffffffffffffffffffffffffffffffffff82169050919050565b60006200058e8262000561565b9050919050565b620005a08162000581565b82525050565b6000602082019050620005bd600083018462000595565b92915050565b612d8f80620005d36000396000f3fe60806040526004361061014b5760003560e01c806395d89b41116100b6578063b88d4fde1161006f578063b88d4fde146104b8578063c87b56dd146104e1578063caa0f92a1461051e578063e985e9c514610549578063eddc426914610586578063f2fde38b146105a25761014b565b806395d89b41146103945780639946f084146103bf57806399b23178146103e8578063a22cb46514610411578063ad50f56d1461043a578063aeda852f146104795761014b565b806342842e0e1161010857806342842e0e146102845780636352211e146102ad57806370a08231146102ea578063715018a61461032757806375794a3c1461033e5780638da5cb5b146103695761014b565b806301ffc9a71461015057806306fdde031461018d578063081812fc146101b8578063095ea7b3146101f557806323b872dd1461021e57806334e7312214610247575b600080fd5b34801561015c57600080fd5b506101776004803603810190610172919061225d565b6105cb565b60405161018491906122a5565b60405180910390f35b34801561019957600080fd5b506101a26106ad565b6040516101af9190612350565b60405180910390f35b3480156101c457600080fd5b506101df60048036038101906101da91906123a8565b61073f565b6040516101ec9190612416565b60405180910390f35b34801561020157600080fd5b5061021c6004803603810190610217919061245d565b61075b565b005b34801561022a57600080fd5b506102456004803603810190610240919061249d565b610771565b005b34801561025357600080fd5b5061026e600480360381019061026991906124f0565b610873565b60405161027b919061253f565b60405180910390f35b34801561029057600080fd5b506102ab60048036038101906102a6919061249d565b6108b8565b005b3480156102b957600080fd5b506102d460048036038101906102cf91906123a8565b6108d8565b6040516102e19190612416565b60405180910390f35b3480156102f657600080fd5b50610311600480360381019061030c919061255a565b6108ea565b60405161031e919061253f565b60405180910390f35b34801561033357600080fd5b5061033c6109a4565b005b34801561034a57600080fd5b506103536109b8565b604051610360919061253f565b60405180910390f35b34801561037557600080fd5b5061037e6109be565b60405161038b9190612416565b60405180910390f35b3480156103a057600080fd5b506103a96109e8565b6040516103b69190612350565b60405180910390f35b3480156103cb57600080fd5b506103e660048036038101906103e1919061255a565b610a7a565b005b3480156103f457600080fd5b5061040f600480360381019061040a91906124f0565b610b53565b005b34801561041d57600080fd5b50610438600480360381019061043391906125b3565b610c81565b005b34801561044657600080fd5b50610461600480360381019061045c91906123a8565b610c97565b604051610470939291906125f3565b60405180910390f35b34801561048557600080fd5b506104a0600480360381019061049b91906123a8565b610d0e565b6040516104af939291906125f3565b60405180910390f35b3480156104c457600080fd5b506104df60048036038101906104da919061275f565b610d58565b005b3480156104ed57600080fd5b50610508600480360381019061050391906123a8565b610d75565b6040516105159190612350565b60405180910390f35b34801561052a57600080fd5b50610533610dde565b604051610540919061253f565b60405180910390f35b34801561055557600080fd5b50610570600480360381019061056b91906127e2565b610de8565b60405161057d91906122a5565b60405180910390f35b6105a0600480360381019061059b91906123a8565b610e7c565b005b3480156105ae57600080fd5b506105c960048036038101906105c4919061255a565b611136565b005b60007f80ac58cd000000000000000000000000000000000000000000000000000000007bffffffffffffffffffffffffffffffffffffffffffffffffffffffff1916827bffffffffffffffffffffffffffffffffffffffffffffffffffffffff1916148061069657507f5b5e139f000000000000000000000000000000000000000000000000000000007bffffffffffffffffffffffffffffffffffffffffffffffffffffffff1916827bffffffffffffffffffffffffffffffffffffffffffffffffffffffff1916145b806106a657506106a5826111bc565b5b9050919050565b6060600080546106bc90612851565b80601f01602080910402602001604051908101604052809291908181526020018280546106e890612851565b80156107355780601f1061070a57610100808354040283529160200191610735565b820191906000526020600020905b81548152906001019060200180831161071857829003601f168201915b5050505050905090565b600061074a82611226565b50610754826112ae565b9050919050565b61076d82826107686112eb565b6112f3565b5050565b600073ffffffffffffffffffffffffffffffffffffffff168273ffffffffffffffffffffffffffffffffffffffff16036107e35760006040517f64a0ae920000000000000000000000000000000000000000000000000000000081526004016107da9190612416565b60405180910390fd5b60006107f783836107f26112eb565b611305565b90508373ffffffffffffffffffffffffffffffffffffffff168173ffffffffffffffffffffffffffffffffffffffff161461086d578382826040517f64283d7b00000000000000000000000000000000000000000000000000000000815260040161086493929190612882565b60405180910390fd5b50505050565b600080824261088291906128e8565b905060006001905061271081838761089a919061291c565b6108a4919061291c565b6108ae919061298d565b9250505092915050565b6108d383838360405180602001604052806000815250610d58565b505050565b60006108e382611226565b9050919050565b60008073ffffffffffffffffffffffffffffffffffffffff168273ffffffffffffffffffffffffffffffffffffffff160361095d5760006040517f89c62b640000000000000000000000000000000000000000000000000000000081526004016109549190612416565b60405180910390fd5b600360008373ffffffffffffffffffffffffffffffffffffffff1673ffffffffffffffffffffffffffffffffffffffff168152602001908152602001600020549050919050565b6109ac61151f565b6109b660006115a6565b565b60085481565b6000600660009054906101000a900473ffffffffffffffffffffffffffffffffffffffff16905090565b6060600180546109f790612851565b80601f0160208091040260200160405190810160405280929190818152602001828054610a2390612851565b8015610a705780601f10610a4557610100808354040283529160200191610a70565b820191906000526020600020905b815481529060010190602001808311610a5357829003601f168201915b5050505050905090565b610a8261151f565b60006008549050610a93828261166c565b60405180606001604052808373ffffffffffffffffffffffffffffffffffffffff1681526020016000815260200160008152506007600083815260200190815260200160002060008201518160000160006101000a81548173ffffffffffffffffffffffffffffffffffffffff021916908373ffffffffffffffffffffffffffffffffffffffff160217905550602082015181600101556040820151816002015590505060086000815480929190610b4a906129be565b91905055505050565b3373ffffffffffffffffffffffffffffffffffffffff16610b73836108d8565b73ffffffffffffffffffffffffffffffffffffffff1614610bc9576040517f08c379a0000000000000000000000000000000000000000000000000000000008152600401610bc090612a52565b60405180910390fd5b60008111610c0c576040517f08c379a0000000000000000000000000000000000000000000000000000000008152600401610c0390612abe565b60405180910390fd5b8060076000848152602001908152602001600020600101819055504260076000848152602001908152602001600020600201819055507f60b3e540896cf4a419e7b7274a1f1282223f5d92ca6f0152cf820fe457fb4843828233604051610c7593929190612ade565b60405180910390a15050565b610c93610c8c6112eb565b838361168a565b5050565b60008060006007600085815260200190815260200160002060000160009054906101000a900473ffffffffffffffffffffffffffffffffffffffff16600760008681526020019081526020016000206001015460076000878152602001908152602001600020600201549250925092509193909250565b60076020528060005260406000206000915090508060000160009054906101000a900473ffffffffffffffffffffffffffffffffffffffff16908060010154908060020154905083565b610d63848484610771565b610d6f848484846117f9565b50505050565b6060610d8082611226565b506000610d8b6119b0565b90506000815111610dab5760405180602001604052806000815250610dd6565b80610db5846119c7565b604051602001610dc6929190612b51565b6040516020818303038152906040525b915050919050565b6000600854905090565b6000600560008473ffffffffffffffffffffffffffffffffffffffff1673ffffffffffffffffffffffffffffffffffffffff16815260200190815260200160002060008373ffffffffffffffffffffffffffffffffffffffff1673ffffffffffffffffffffffffffffffffffffffff16815260200190815260200160002060009054906101000a900460ff16905092915050565b6000600760008381526020019081526020016000206040518060600160405290816000820160009054906101000a900473ffffffffffffffffffffffffffffffffffffffff1673ffffffffffffffffffffffffffffffffffffffff1673ffffffffffffffffffffffffffffffffffffffff1681526020016001820154815260200160028201548152505090506000816020015111610f4f576040517f08c379a0000000000000000000000000000000000000000000000000000000008152600401610f4690612bc1565b60405180910390fd5b8060200151341015610f96576040517f08c379a0000000000000000000000000000000000000000000000000000000008152600401610f8d90612c2d565b60405180910390fd5b6000610fa1836108d8565b9050610fae813385611a95565b336007600085815260200190815260200160002060000160006101000a81548173ffffffffffffffffffffffffffffffffffffffff021916908373ffffffffffffffffffffffffffffffffffffffff1602179055506000600760008581526020019081526020016000206001018190555060006007600085815260200190815260200160002060020181905550600061104f83602001518460400151610873565b90506110596109be565b73ffffffffffffffffffffffffffffffffffffffff166108fc829081150290604051600060405180830381858888f1935050505015801561109e573d6000803e3d6000fd5b508173ffffffffffffffffffffffffffffffffffffffff166108fc82346110c591906128e8565b9081150290604051600060405180830381858888f193505050501580156110f0573d6000803e3d6000fd5b507fb6e6b0aa920ed5fbb8dd058bbd321e9b2b8780062b0dd9bc84019b47706f73ab8484602001513360405161112893929190612ade565b60405180910390a150505050565b61113e61151f565b600073ffffffffffffffffffffffffffffffffffffffff168173ffffffffffffffffffffffffffffffffffffffff16036111b05760006040517f1e4fbdf70000000000000000000000000000000000000000000000000000000081526004016111a79190612416565b60405180910390fd5b6111b9816115a6565b50565b60007f01ffc9a7000000000000000000000000000000000000000000000000000000007bffffffffffffffffffffffffffffffffffffffffffffffffffffffff1916827bffffffffffffffffffffffffffffffffffffffffffffffffffffffff1916149050919050565b60008061123283611c02565b9050600073ffffffffffffffffffffffffffffffffffffffff168173ffffffffffffffffffffffffffffffffffffffff16036112a557826040517f7e27328900000000000000000000000000000000000000000000000000000000815260040161129c919061253f565b60405180910390fd5b80915050919050565b60006004600083815260200190815260200160002060009054906101000a900473ffffffffffffffffffffffffffffffffffffffff169050919050565b600033905090565b6113008383836001611c3f565b505050565b60008061131184611c02565b9050600073ffffffffffffffffffffffffffffffffffffffff168373ffffffffffffffffffffffffffffffffffffffff161461135357611352818486611e04565b5b600073ffffffffffffffffffffffffffffffffffffffff168173ffffffffffffffffffffffffffffffffffffffff16146113e457611395600085600080611c3f565b6001600360008373ffffffffffffffffffffffffffffffffffffffff1673ffffffffffffffffffffffffffffffffffffffff168152602001908152602001600020600082825403925050819055505b600073ffffffffffffffffffffffffffffffffffffffff168573ffffffffffffffffffffffffffffffffffffffff1614611467576001600360008773ffffffffffffffffffffffffffffffffffffffff1673ffffffffffffffffffffffffffffffffffffffff168152602001908152602001600020600082825401925050819055505b846002600086815260200190815260200160002060006101000a81548173ffffffffffffffffffffffffffffffffffffffff021916908373ffffffffffffffffffffffffffffffffffffffff160217905550838573ffffffffffffffffffffffffffffffffffffffff168273ffffffffffffffffffffffffffffffffffffffff167fddf252ad1be2c89b69c2b068fc378daa952ba7f163c4a11628f55a4df523b3ef60405160405180910390a4809150509392505050565b6115276112eb565b73ffffffffffffffffffffffffffffffffffffffff166115456109be565b73ffffffffffffffffffffffffffffffffffffffff16146115a4576115686112eb565b6040517f118cdaa700000000000000000000000000000000000000000000000000000000815260040161159b9190612416565b60405180910390fd5b565b6000600660009054906101000a900473ffffffffffffffffffffffffffffffffffffffff16905081600660006101000a81548173ffffffffffffffffffffffffffffffffffffffff021916908373ffffffffffffffffffffffffffffffffffffffff1602179055508173ffffffffffffffffffffffffffffffffffffffff168173ffffffffffffffffffffffffffffffffffffffff167f8be0079c531659141344cd1fd0a4f28419497f9722a3daafe3b4186f6b6457e060405160405180910390a35050565b611686828260405180602001604052806000815250611ec8565b5050565b600073ffffffffffffffffffffffffffffffffffffffff168273ffffffffffffffffffffffffffffffffffffffff16036116fb57816040517f5b08ba180000000000000000000000000000000000000000000000000000000081526004016116f29190612416565b60405180910390fd5b80600560008573ffffffffffffffffffffffffffffffffffffffff1673ffffffffffffffffffffffffffffffffffffffff16815260200190815260200160002060008473ffffffffffffffffffffffffffffffffffffffff1673ffffffffffffffffffffffffffffffffffffffff16815260200190815260200160002060006101000a81548160ff0219169083151502179055508173ffffffffffffffffffffffffffffffffffffffff168373ffffffffffffffffffffffffffffffffffffffff167f17307eab39ab6107e8899845ad3d59bd9653f200f220920489ca2b5937696c31836040516117ec91906122a5565b60405180910390a3505050565b60008373ffffffffffffffffffffffffffffffffffffffff163b11156119aa578273ffffffffffffffffffffffffffffffffffffffff1663150b7a0261183d6112eb565b8685856040518563ffffffff1660e01b815260040161185f9493929190612ca2565b6020604051808303816000875af192505050801561189b57506040513d601f19601f820116820180604052508101906118989190612d03565b60015b61191f573d80600081146118cb576040519150601f19603f3d011682016040523d82523d6000602084013e6118d0565b606091505b50600081510361191757836040517f64a0ae9200000000000000000000000000000000000000000000000000000000815260040161190e9190612416565b60405180910390fd5b805181602001fd5b63150b7a0260e01b7bffffffffffffffffffffffffffffffffffffffffffffffffffffffff1916817bffffffffffffffffffffffffffffffffffffffffffffffffffffffff1916146119a857836040517f64a0ae9200000000000000000000000000000000000000000000000000000000815260040161199f9190612416565b60405180910390fd5b505b50505050565b606060405180602001604052806000815250905090565b6060600060016119d684611ee4565b01905060008167ffffffffffffffff8111156119f5576119f4612634565b5b6040519080825280601f01601f191660200182016040528015611a275781602001600182028036833780820191505090505b509050600082602001820190505b600115611a8a578080600190039150507f3031323334353637383961626364656600000000000000000000000000000000600a86061a8153600a8581611a7e57611a7d61295e565b5b04945060008503611a35575b819350505050919050565b600073ffffffffffffffffffffffffffffffffffffffff168273ffffffffffffffffffffffffffffffffffffffff1603611b075760006040517f64a0ae92000000000000000000000000000000000000000000000000000000008152600401611afe9190612416565b60405180910390fd5b6000611b1583836000611305565b9050600073ffffffffffffffffffffffffffffffffffffffff168173ffffffffffffffffffffffffffffffffffffffff1603611b8857816040517f7e273289000000000000000000000000000000000000000000000000000000008152600401611b7f919061253f565b60405180910390fd5b8373ffffffffffffffffffffffffffffffffffffffff168173ffffffffffffffffffffffffffffffffffffffff1614611bfc578382826040517f64283d7b000000000000000000000000000000000000000000000000000000008152600401611bf393929190612882565b60405180910390fd5b50505050565b60006002600083815260200190815260200160002060009054906101000a900473ffffffffffffffffffffffffffffffffffffffff169050919050565b8080611c785750600073ffffffffffffffffffffffffffffffffffffffff168273ffffffffffffffffffffffffffffffffffffffff1614155b15611dac576000611c8884611226565b9050600073ffffffffffffffffffffffffffffffffffffffff168373ffffffffffffffffffffffffffffffffffffffff1614158015611cf357508273ffffffffffffffffffffffffffffffffffffffff168173ffffffffffffffffffffffffffffffffffffffff1614155b8015611d065750611d048184610de8565b155b15611d4857826040517fa9fbf51f000000000000000000000000000000000000000000000000000000008152600401611d3f9190612416565b60405180910390fd5b8115611daa57838573ffffffffffffffffffffffffffffffffffffffff168273ffffffffffffffffffffffffffffffffffffffff167f8c5be1e5ebec7d5bd14f71427d1e84f3dd0314c0f7b2291e5b200ac8c7c3b92560405160405180910390a45b505b836004600085815260200190815260200160002060006101000a81548173ffffffffffffffffffffffffffffffffffffffff021916908373ffffffffffffffffffffffffffffffffffffffff16021790555050505050565b611e0f838383612037565b611ec357600073ffffffffffffffffffffffffffffffffffffffff168373ffffffffffffffffffffffffffffffffffffffff1603611e8457806040517f7e273289000000000000000000000000000000000000000000000000000000008152600401611e7b919061253f565b60405180910390fd5b81816040517f177e802f000000000000000000000000000000000000000000000000000000008152600401611eba929190612d30565b60405180910390fd5b505050565b611ed283836120f8565b611edf60008484846117f9565b505050565b600080600090507a184f03e93ff9f4daa797ed6e38ed64bf6a1f0100000000000000008310611f42577a184f03e93ff9f4daa797ed6e38ed64bf6a1f0100000000000000008381611f3857611f3761295e565b5b0492506040810190505b6d04ee2d6d415b85acef81000000008310611f7f576d04ee2d6d415b85acef81000000008381611f7557611f7461295e565b5b0492506020810190505b662386f26fc100008310611fae57662386f26fc100008381611fa457611fa361295e565b5b0492506010810190505b6305f5e1008310611fd7576305f5e1008381611fcd57611fcc61295e565b5b0492506008810190505b6127108310611ffc576127108381611ff257611ff161295e565b5b0492506004810190505b6064831061201f57606483816120155761201461295e565b5b0492506002810190505b600a831061202e576001810190505b80915050919050565b60008073ffffffffffffffffffffffffffffffffffffffff168373ffffffffffffffffffffffffffffffffffffffff16141580156120ef57508273ffffffffffffffffffffffffffffffffffffffff168473ffffffffffffffffffffffffffffffffffffffff1614806120b057506120af8484610de8565b5b806120ee57508273ffffffffffffffffffffffffffffffffffffffff166120d6836112ae565b73ffffffffffffffffffffffffffffffffffffffff16145b5b90509392505050565b600073ffffffffffffffffffffffffffffffffffffffff168273ffffffffffffffffffffffffffffffffffffffff160361216a5760006040517f64a0ae920000000000000000000000000000000000000000000000000000000081526004016121619190612416565b60405180910390fd5b600061217883836000611305565b9050600073ffffffffffffffffffffffffffffffffffffffff168173ffffffffffffffffffffffffffffffffffffffff16146121ec5760006040517f73c6ac6e0000000000000000000000000000000000000000000000000000000081526004016121e39190612416565b60405180910390fd5b505050565b6000604051905090565b600080fd5b600080fd5b60007fffffffff0000000000000000000000000000000000000000000000000000000082169050919050565b61223a81612205565b811461224557600080fd5b50565b60008135905061225781612231565b92915050565b600060208284031215612273576122726121fb565b5b600061228184828501612248565b91505092915050565b60008115159050919050565b61229f8161228a565b82525050565b60006020820190506122ba6000830184612296565b92915050565b600081519050919050565b600082825260208201905092915050565b60005b838110156122fa5780820151818401526020810190506122df565b60008484015250505050565b6000601f19601f8301169050919050565b6000612322826122c0565b61232c81856122cb565b935061233c8185602086016122dc565b61234581612306565b840191505092915050565b6000602082019050818103600083015261236a8184612317565b905092915050565b6000819050919050565b61238581612372565b811461239057600080fd5b50565b6000813590506123a28161237c565b92915050565b6000602082840312156123be576123bd6121fb565b5b60006123cc84828501612393565b91505092915050565b600073ffffffffffffffffffffffffffffffffffffffff82169050919050565b6000612400826123d5565b9050919050565b612410816123f5565b82525050565b600060208201905061242b6000830184612407565b92915050565b61243a816123f5565b811461244557600080fd5b50565b60008135905061245781612431565b92915050565b60008060408385031215612474576124736121fb565b5b600061248285828601612448565b925050602061249385828601612393565b9150509250929050565b6000806000606084860312156124b6576124b56121fb565b5b60006124c486828701612448565b93505060206124d586828701612448565b92505060406124e686828701612393565b9150509250925092565b60008060408385031215612507576125066121fb565b5b600061251585828601612393565b925050602061252685828601612393565b9150509250929050565b61253981612372565b82525050565b60006020820190506125546000830184612530565b92915050565b6000602082840312156125705761256f6121fb565b5b600061257e84828501612448565b91505092915050565b6125908161228a565b811461259b57600080fd5b50565b6000813590506125ad81612587565b92915050565b600080604083850312156125ca576125c96121fb565b5b60006125d885828601612448565b92505060206125e98582860161259e565b9150509250929050565b60006060820190506126086000830186612407565b6126156020830185612530565b6126226040830184612530565b949350505050565b600080fd5b600080fd5b7f4e487b7100000000000000000000000000000000000000000000000000000000600052604160045260246000fd5b61266c82612306565b810181811067ffffffffffffffff8211171561268b5761268a612634565b5b80604052505050565b600061269e6121f1565b90506126aa8282612663565b919050565b600067ffffffffffffffff8211156126ca576126c9612634565b5b6126d382612306565b9050602081019050919050565b82818337600083830152505050565b60006127026126fd846126af565b612694565b90508281526020810184848401111561271e5761271d61262f565b5b6127298482856126e0565b509392505050565b600082601f8301126127465761274561262a565b5b81356127568482602086016126ef565b91505092915050565b60008060008060808587031215612779576127786121fb565b5b600061278787828801612448565b945050602061279887828801612448565b93505060406127a987828801612393565b925050606085013567ffffffffffffffff8111156127ca576127c9612200565b5b6127d687828801612731565b91505092959194509250565b600080604083850312156127f9576127f86121fb565b5b600061280785828601612448565b925050602061281885828601612448565b9150509250929050565b7f4e487b7100000000000000000000000000000000000000000000000000000000600052602260045260246000fd5b6000600282049050600182168061286957607f821691505b60208210810361287c5761287b612822565b5b50919050565b60006060820190506128976000830186612407565b6128a46020830185612530565b6128b16040830184612407565b949350505050565b7f4e487b7100000000000000000000000000000000000000000000000000000000600052601160045260246000fd5b60006128f382612372565b91506128fe83612372565b9250828203905081811115612916576129156128b9565b5b92915050565b600061292782612372565b915061293283612372565b925082820261294081612372565b91508282048414831517612957576129566128b9565b5b5092915050565b7f4e487b7100000000000000000000000000000000000000000000000000000000600052601260045260246000fd5b600061299882612372565b91506129a383612372565b9250826129b3576129b261295e565b5b828204905092915050565b60006129c982612372565b91507fffffffffffffffffffffffffffffffffffffffffffffffffffffffffffffffff82036129fb576129fa6128b9565b5b600182019050919050565b7f4e6f742074686520686f757365206f776e657200000000000000000000000000600082015250565b6000612a3c6013836122cb565b9150612a4782612a06565b602082019050919050565b60006020820190508181036000830152612a6b81612a2f565b9050919050565b7f5072696365206d7573742062652067726561746572207468616e207a65726f00600082015250565b6000612aa8601f836122cb565b9150612ab382612a72565b602082019050919050565b60006020820190508181036000830152612ad781612a9b565b9050919050565b6000606082019050612af36000830186612530565b612b006020830185612530565b612b0d6040830184612407565b949350505050565b600081905092915050565b6000612b2b826122c0565b612b358185612b15565b9350612b458185602086016122dc565b80840191505092915050565b6000612b5d8285612b20565b9150612b698284612b20565b91508190509392505050565b7f486f757365206e6f7420666f722073616c650000000000000000000000000000600082015250565b6000612bab6012836122cb565b9150612bb682612b75565b602082019050919050565b60006020820190508181036000830152612bda81612b9e565b9050919050565b7f496e73756666696369656e74207061796d656e74000000000000000000000000600082015250565b6000612c176014836122cb565b9150612c2282612be1565b602082019050919050565b60006020820190508181036000830152612c4681612c0a565b9050919050565b600081519050919050565b600082825260208201905092915050565b6000612c7482612c4d565b612c7e8185612c58565b9350612c8e8185602086016122dc565b612c9781612306565b840191505092915050565b6000608082019050612cb76000830187612407565b612cc46020830186612407565b612cd16040830185612530565b8181036060830152612ce38184612c69565b905095945050505050565b600081519050612cfd81612231565b92915050565b600060208284031215612d1957612d186121fb565b5b6000612d2784828501612cee565b91505092915050565b6000604082019050612d456000830185612407565b612d526020830184612530565b939250505056fea2646970667358221220a03a3d1eeae8adf08905eb77ece0defa6f3d2ec34d3f7cc07f140d26258318de64736f6c63430008140033",
  "linkReferences": {},
  "deployedLinkReferences": {}
}